{
  "contractName": "DaiStore",
  "abi": [
    {
      "anonymous": false,
      "inputs": [
        {
          "indexed": false,
          "internalType": "address",
          "name": "_client",
          "type": "address"
        },
        {
          "indexed": false,
          "internalType": "uint256",
          "name": "_amount",
          "type": "uint256"
        }
      ],
      "name": "DAIDeposited",
      "type": "event"
    },
    {
      "anonymous": false,
      "inputs": [
        {
          "indexed": false,
          "internalType": "address",
          "name": "_client",
          "type": "address"
        },
        {
          "indexed": false,
          "internalType": "uint256",
          "name": "_amount",
          "type": "uint256"
        }
      ],
      "name": "YakaDAIDeposited",
      "type": "event"
    },
    {
      "inputs": [],
      "name": "depositDAI",
      "outputs": [],
      "stateMutability": "nonpayable",
      "type": "function"
    },
    {
      "inputs": [],
      "name": "depositYakaDAI",
      "outputs": [
        {
          "internalType": "bool",
          "name": "success",
          "type": "bool"
        }
      ],
      "stateMutability": "nonpayable",
      "type": "function"
    },
    {
      "inputs": [
        {
          "internalType": "uint256",
          "name": "nburnedTokens",
          "type": "uint256"
        }
      ],
      "name": "depositYakaDAI_improving",
      "outputs": [
        {
          "internalType": "bool",
          "name": "success",
          "type": "bool"
        }
      ],
      "stateMutability": "nonpayable",
      "type": "function"
    },
    {
      "inputs": [
        {
          "internalType": "address",
          "name": "a",
          "type": "address"
        }
      ],
      "name": "DAIallowance",
      "outputs": [
        {
          "internalType": "uint256",
          "name": "",
          "type": "uint256"
        }
      ],
      "stateMutability": "view",
      "type": "function",
      "constant": true
    },
    {
      "inputs": [
        {
          "internalType": "address",
          "name": "a",
          "type": "address"
        }
      ],
      "name": "yakaDAIallowance",
      "outputs": [
        {
          "internalType": "uint256",
          "name": "",
          "type": "uint256"
        }
      ],
      "stateMutability": "view",
      "type": "function",
      "constant": true
    },
    {
      "inputs": [
        {
          "internalType": "address",
          "name": "a",
          "type": "address"
        },
        {
          "internalType": "uint256",
          "name": "tokenAmount",
          "type": "uint256"
        }
      ],
      "name": "withdrawDAI",
      "outputs": [
        {
          "internalType": "bool",
          "name": "success",
          "type": "bool"
        }
      ],
      "stateMutability": "nonpayable",
      "type": "function"
    },
    {
      "inputs": [],
      "name": "DAIassets",
      "outputs": [
        {
          "internalType": "uint256",
          "name": "",
          "type": "uint256"
        }
      ],
      "stateMutability": "view",
      "type": "function",
      "constant": true
    },
    {
      "inputs": [],
      "name": "yakaDAIassets",
      "outputs": [
        {
          "internalType": "uint256",
          "name": "",
          "type": "uint256"
        }
      ],
      "stateMutability": "view",
      "type": "function",
      "constant": true
    },
    {
      "inputs": [],
      "name": "storeETH",
      "outputs": [],
      "stateMutability": "payable",
      "type": "function",
      "payable": true
    },
    {
      "inputs": [
        {
          "internalType": "address payable",
          "name": "a",
          "type": "address"
        },
        {
          "internalType": "uint256",
          "name": "amount",
          "type": "uint256"
        }
      ],
      "name": "withdrawETH",
      "outputs": [],
      "stateMutability": "nonpayable",
      "type": "function"
    },
    {
      "inputs": [],
      "name": "getBalanceETH",
      "outputs": [
        {
          "internalType": "uint256",
          "name": "",
          "type": "uint256"
        }
      ],
      "stateMutability": "view",
      "type": "function",
      "constant": true
    }
  ],
  "bytecode": "0x608060405234801561001057600080fd5b5061106a806100206000396000f3fe60806040526004361061009c5760003560e01c806354bef45d1161006457806354bef45d1461024257806361becd771461026d57806392c7b7b914610284578063acd1f254146102b1578063eabdd572146102dc578063f1ad33341461034d5761009c565b80630db4ee62146100a1578063248a5780146100f25780632caa69471461011d57806345c55f75146101825780634782f779146101e7575b600080fd5b3480156100ad57600080fd5b506100da600480360360208110156100c457600080fd5b8101908080359060200190929190505050610357565b60405180821515815260200191505060405180910390f35b3480156100fe57600080fd5b50610107610581565b6040518082815260200191505060405180910390f35b34801561012957600080fd5b5061016c6004803603602081101561014057600080fd5b81019080803573ffffffffffffffffffffffffffffffffffffffff16906020019092919050505061063e565b6040518082815260200191505060405180910390f35b34801561018e57600080fd5b506101d1600480360360208110156101a557600080fd5b81019080803573ffffffffffffffffffffffffffffffffffffffff16906020019092919050505061071b565b6040518082815260200191505060405180910390f35b3480156101f357600080fd5b506102406004803603604081101561020a57600080fd5b81019080803573ffffffffffffffffffffffffffffffffffffffff169060200190929190803590602001909291905050506107f8565b005b34801561024e57600080fd5b50610257610857565b6040518082815260200191505060405180910390f35b34801561027957600080fd5b50610282610914565b005b34801561029057600080fd5b50610299610bd5565b60405180821515815260200191505060405180910390f35b3480156102bd57600080fd5b506102c6610f5d565b6040518082815260200191505060405180910390f35b3480156102e857600080fd5b50610335600480360360408110156102ff57600080fd5b81019080803573ffffffffffffffffffffffffffffffffffffffff16906020019092919080359060200190929190505050610f65565b60405180821515815260200191505060405180910390f35b610355611032565b005b6000817317c8f6637cff31f81a3e5bffa7cec78ea68aba3873ffffffffffffffffffffffffffffffffffffffff166370a08231336040518263ffffffff1660e01b8152600401808273ffffffffffffffffffffffffffffffffffffffff16815260200191505060206040518083038186803b1580156103d557600080fd5b505afa1580156103e9573d6000803e3d6000fd5b505050506040513d60208110156103ff57600080fd5b81019080805190602001909291905050501161041a57600080fd5b7317c8f6637cff31f81a3e5bffa7cec78ea68aba3873ffffffffffffffffffffffffffffffffffffffff16639dc29fac33846040518363ffffffff1660e01b8152600401808373ffffffffffffffffffffffffffffffffffffffff16815260200182815260200192505050600060405180830381600087803b15801561049f57600080fd5b505af11580156104b3573d6000803e3d6000fd5b5050505073a92feb821bd31fe2826a40d260558b87323fcff773ffffffffffffffffffffffffffffffffffffffff1663a9059cbb33846040518363ffffffff1660e01b8152600401808373ffffffffffffffffffffffffffffffffffffffff16815260200182815260200192505050602060405180830381600087803b15801561053c57600080fd5b505af1158015610550573d6000803e3d6000fd5b505050506040513d602081101561056657600080fd5b81019080805190602001909291905050505060019050919050565b600073a92feb821bd31fe2826a40d260558b87323fcff773ffffffffffffffffffffffffffffffffffffffff166370a08231306040518263ffffffff1660e01b8152600401808273ffffffffffffffffffffffffffffffffffffffff16815260200191505060206040518083038186803b1580156105fe57600080fd5b505afa158015610612573d6000803e3d6000fd5b505050506040513d602081101561062857600080fd5b8101908080519060200190929190505050905090565b60007317c8f6637cff31f81a3e5bffa7cec78ea68aba3873ffffffffffffffffffffffffffffffffffffffff1663dd62ed3e83306040518363ffffffff1660e01b8152600401808373ffffffffffffffffffffffffffffffffffffffff1681526020018273ffffffffffffffffffffffffffffffffffffffff1681526020019250505060206040518083038186803b1580156106d957600080fd5b505afa1580156106ed573d6000803e3d6000fd5b505050506040513d602081101561070357600080fd5b81019080805190602001909291905050509050919050565b600073a92feb821bd31fe2826a40d260558b87323fcff773ffffffffffffffffffffffffffffffffffffffff1663dd62ed3e83306040518363ffffffff1660e01b8152600401808373ffffffffffffffffffffffffffffffffffffffff1681526020018273ffffffffffffffffffffffffffffffffffffffff1681526020019250505060206040518083038186803b1580156107b657600080fd5b505afa1580156107ca573d6000803e3d6000fd5b505050506040513d60208110156107e057600080fd5b81019080805190602001909291905050509050919050565b610800610f5d565b81111561080c57600080fd5b8173ffffffffffffffffffffffffffffffffffffffff166108fc829081150290604051600060405180830381858888f19350505050158015610852573d6000803e3d6000fd5b505050565b60007317c8f6637cff31f81a3e5bffa7cec78ea68aba3873ffffffffffffffffffffffffffffffffffffffff166370a08231306040518263ffffffff1660e01b8152600401808273ffffffffffffffffffffffffffffffffffffffff16815260200191505060206040518083038186803b1580156108d457600080fd5b505afa1580156108e8573d6000803e3d6000fd5b505050506040513d60208110156108fe57600080fd5b8101908080519060200190929190505050905090565b600073a92feb821bd31fe2826a40d260558b87323fcff773ffffffffffffffffffffffffffffffffffffffff1663dd62ed3e33306040518363ffffffff1660e01b8152600401808373ffffffffffffffffffffffffffffffffffffffff1681526020018273ffffffffffffffffffffffffffffffffffffffff1681526020019250505060206040518083038186803b1580156109af57600080fd5b505afa1580156109c3573d6000803e3d6000fd5b505050506040513d60208110156109d957600080fd5b81019080805190602001909291905050509050600081116109f957600080fd5b73a92feb821bd31fe2826a40d260558b87323fcff773ffffffffffffffffffffffffffffffffffffffff166323b872dd3330846040518463ffffffff1660e01b8152600401808473ffffffffffffffffffffffffffffffffffffffff1681526020018373ffffffffffffffffffffffffffffffffffffffff1681526020018281526020019350505050602060405180830381600087803b158015610a9c57600080fd5b505af1158015610ab0573d6000803e3d6000fd5b505050506040513d6020811015610ac657600080fd5b8101908080519060200190929190505050610ae057600080fd5b7f906e4c1ac4e9ad0c23b280aad1f16fe761b1c28ed45997964a61403fbeb5c0403382604051808373ffffffffffffffffffffffffffffffffffffffff1681526020018281526020019250505060405180910390a17317c8f6637cff31f81a3e5bffa7cec78ea68aba3873ffffffffffffffffffffffffffffffffffffffff166340c10f1933836040518363ffffffff1660e01b8152600401808373ffffffffffffffffffffffffffffffffffffffff16815260200182815260200192505050600060405180830381600087803b158015610bba57600080fd5b505af1158015610bce573d6000803e3d6000fd5b5050505050565b6000807317c8f6637cff31f81a3e5bffa7cec78ea68aba3873ffffffffffffffffffffffffffffffffffffffff1663dd62ed3e33306040518363ffffffff1660e01b8152600401808373ffffffffffffffffffffffffffffffffffffffff1681526020018273ffffffffffffffffffffffffffffffffffffffff1681526020019250505060206040518083038186803b158015610c7157600080fd5b505afa158015610c85573d6000803e3d6000fd5b505050506040513d6020811015610c9b57600080fd5b8101908080519060200190929190505050905060008111610cbb57600080fd5b7317c8f6637cff31f81a3e5bffa7cec78ea68aba3873ffffffffffffffffffffffffffffffffffffffff166323b872dd3330846040518463ffffffff1660e01b8152600401808473ffffffffffffffffffffffffffffffffffffffff1681526020018373ffffffffffffffffffffffffffffffffffffffff1681526020018281526020019350505050602060405180830381600087803b158015610d5e57600080fd5b505af1158015610d72573d6000803e3d6000fd5b505050506040513d6020811015610d8857600080fd5b8101908080519060200190929190505050610da257600080fd5b7317c8f6637cff31f81a3e5bffa7cec78ea68aba3873ffffffffffffffffffffffffffffffffffffffff16639dc29fac30836040518363ffffffff1660e01b8152600401808373ffffffffffffffffffffffffffffffffffffffff16815260200182815260200192505050600060405180830381600087803b158015610e2757600080fd5b505af1158015610e3b573d6000803e3d6000fd5b505050507f32032c95625762d0d5a4cdefd25f5b29cb0c03a873335868f31d58449d8e61583382604051808373ffffffffffffffffffffffffffffffffffffffff1681526020018281526020019250505060405180910390a173a92feb821bd31fe2826a40d260558b87323fcff773ffffffffffffffffffffffffffffffffffffffff1663a9059cbb33836040518363ffffffff1660e01b8152600401808373ffffffffffffffffffffffffffffffffffffffff16815260200182815260200192505050602060405180830381600087803b158015610f1957600080fd5b505af1158015610f2d573d6000803e3d6000fd5b505050506040513d6020811015610f4357600080fd5b810190808051906020019092919050505050600191505090565b600047905090565b600073a92feb821bd31fe2826a40d260558b87323fcff773ffffffffffffffffffffffffffffffffffffffff1663a9059cbb84846040518363ffffffff1660e01b8152600401808373ffffffffffffffffffffffffffffffffffffffff16815260200182815260200192505050602060405180830381600087803b158015610fec57600080fd5b505af1158015611000573d6000803e3d6000fd5b505050506040513d602081101561101657600080fd5b8101908080519060200190929190505050506000905092915050565b56fea264697066735822122025467a5bc88ae15176095cbf9935842899e8ec146d310f3f69201bcc3d18972564736f6c63430007000033",
  "immutableReferences": {},
  "source": "pragma solidity ^0.7.0;\n\n\nimport \"@openzeppelin/contracts/math/SafeMath.sol\";\nimport \"./yakaDAI.sol\";\n\ncontract DaiStore {\n    \n    using SafeMath for uint256;\n    \n    address constant internal DaiAddress = 0xa92fEB821Bd31Fe2826A40d260558B87323fCfF7; // DAI Address  \n    address constant internal yakaDAIAddress = 0x17C8F6637CfF31F81A3e5Bffa7CEc78EA68aBA38; // yakaDAI Address\n    \n    ERC20 constant internal dai = ERC20(DaiAddress);\n    yakaDAI constant internal yakadai = yakaDAI(yakaDAIAddress);\n\n    event DAIDeposited(address _client, uint256 _amount);\n    event YakaDAIDeposited(address _client, uint256 _amount);\n    \n    function depositDAI() public {\n        uint tokenAmount = dai.allowance(msg.sender, address(this));\n        require(tokenAmount > 0);\n        require(dai.transferFrom(msg.sender, address(this), tokenAmount));\n        emit DAIDeposited(msg.sender, tokenAmount);\n        yakadai.mint(msg.sender, tokenAmount);\n    }\n    \n    function depositYakaDAI() public returns (bool success) {\n        uint tokenAmount = yakadai.allowance(msg.sender, address(this));\n        require(tokenAmount > 0);\n        \n        //////////////////////////// //////////////////////////////////////////////////\n        /////// Fer el que sigui amb els DAI per tenirlo aqui per enviar usuari ///////\n        //////////////////////////// //////////////////////////////////////////////////\n        \n        require(yakadai.transferFrom(msg.sender, address(this), tokenAmount));\n        yakadai.burn(address(this), tokenAmount);\n        emit YakaDAIDeposited(msg.sender, tokenAmount);\n        dai.transfer(msg.sender, tokenAmount);\n        return true;\n    }\n    \n    function depositYakaDAI_improving(uint nburnedTokens) public returns (bool success) {\n        require(yakadai.balanceOf(msg.sender) > nburnedTokens);\n        \n        //////////////////////////// //////////////////////////////////////////////////\n        /////// Fer el que sigui amb els DAI per tenirlo aqui per enviar usuari ///////\n        //////////////////////////// //////////////////////////////////////////////////\n        \n        yakadai.burn(msg.sender, nburnedTokens);\n        dai.transfer(msg.sender, nburnedTokens);\n        return true;\n    }\n    \n    function DAIallowance(address a) public view returns (uint) {\n        return dai.allowance(a, address(this));\n    }\n    \n    function yakaDAIallowance(address a) public view returns (uint) {\n        return yakadai.allowance(a, address(this));\n    }\n    \n    function withdrawDAI(address a, uint tokenAmount) public returns (bool success) {\n        dai.transfer(a, tokenAmount);\n        return false;\n    }\n    \n    function DAIassets() public view returns (uint256) {\n        return dai.balanceOf(address(this));\n    }\n    \n    function yakaDAIassets() public view returns (uint256) {\n        return yakadai.balanceOf(address(this));\n    }\n    \n    function storeETH() payable public {}\n    \n    function withdrawETH(address payable a, uint256 amount) public {\n        require(amount <= getBalanceETH());\n        a.transfer(amount);\n    }\n    \n    function getBalanceETH() public view returns (uint256) {\n        return address(this).balance;\n    } \n}\n",
  "sourcePath": "/home/alice/projecte/contracts/DaiStore.sol",
  "compiler": {
    "name": "solc",
    "version": "0.7.0+commit.9e61f92b.Emscripten.clang"
  },
  "schemaVersion": "3.3.3",
  "updatedAt": "2021-02-07T11:00:20.044Z",
  "networkType": "ethereum",
  "devdoc": {
    "kind": "dev",
    "methods": {},
    "version": 1
  },
  "userdoc": {
    "kind": "user",
    "methods": {},
    "version": 1
  }
}